{
  "contractName": "LotteryContract",
  "abi": [
    {
      "anonymous": false,
      "inputs": [
        {
          "indexed": false,
          "internalType": "address",
          "name": "loser",
          "type": "address"
        }
      ],
      "name": "HasLost",
      "type": "event"
    },
    {
      "anonymous": false,
      "inputs": [
        {
          "indexed": false,
          "internalType": "address",
          "name": "winner",
          "type": "address"
        },
        {
          "indexed": false,
          "internalType": "uint256",
          "name": "winningAmount",
          "type": "uint256"
        }
      ],
      "name": "HasWon",
      "type": "event"
    },
    {
      "anonymous": false,
      "inputs": [
        {
          "indexed": false,
          "internalType": "uint256",
          "name": "winningPrize",
          "type": "uint256"
        }
      ],
      "name": "NewDraw",
      "type": "event"
    },
    {
      "inputs": [],
      "name": "finalized",
      "outputs": [
        {
          "internalType": "bool",
          "name": "",
          "type": "bool"
        }
      ],
      "stateMutability": "view",
      "type": "function",
      "constant": true
    },
    {
      "inputs": [],
      "name": "owner",
      "outputs": [
        {
          "internalType": "address",
          "name": "",
          "type": "address"
        }
      ],
      "stateMutability": "view",
      "type": "function",
      "constant": true
    },
    {
      "inputs": [
        {
          "internalType": "address",
          "name": "",
          "type": "address"
        }
      ],
      "name": "players",
      "outputs": [
        {
          "internalType": "bool",
          "name": "",
          "type": "bool"
        }
      ],
      "stateMutability": "view",
      "type": "function",
      "constant": true
    },
    {
      "inputs": [],
      "name": "winningPrize",
      "outputs": [
        {
          "internalType": "uint256",
          "name": "",
          "type": "uint256"
        }
      ],
      "stateMutability": "view",
      "type": "function",
      "constant": true
    },
    {
      "stateMutability": "payable",
      "type": "receive",
      "payable": true
    },
    {
      "inputs": [
        {
          "internalType": "address",
          "name": "_initialOwner",
          "type": "address"
        },
        {
          "internalType": "uint256",
          "name": "_initialWinningPrize",
          "type": "uint256"
        },
        {
          "internalType": "uint256",
          "name": "_initialLuckyNumber",
          "type": "uint256"
        }
      ],
      "name": "initialize",
      "outputs": [],
      "stateMutability": "nonpayable",
      "type": "function"
    },
    {
      "inputs": [],
      "name": "getFinalized",
      "outputs": [
        {
          "internalType": "bool",
          "name": "",
          "type": "bool"
        }
      ],
      "stateMutability": "view",
      "type": "function",
      "constant": true
    },
    {
      "inputs": [],
      "name": "getWinningPrize",
      "outputs": [
        {
          "internalType": "uint256",
          "name": "",
          "type": "uint256"
        }
      ],
      "stateMutability": "view",
      "type": "function",
      "constant": true
    },
    {
      "inputs": [],
      "name": "hasAlreadyPlayed",
      "outputs": [
        {
          "internalType": "bool",
          "name": "",
          "type": "bool"
        }
      ],
      "stateMutability": "view",
      "type": "function",
      "constant": true
    },
    {
      "inputs": [
        {
          "internalType": "uint256",
          "name": "_number",
          "type": "uint256"
        }
      ],
      "name": "isValid",
      "outputs": [
        {
          "internalType": "bool",
          "name": "",
          "type": "bool"
        }
      ],
      "stateMutability": "pure",
      "type": "function",
      "constant": true
    },
    {
      "inputs": [
        {
          "internalType": "uint256",
          "name": "_newLuckyNumber",
          "type": "uint256"
        },
        {
          "internalType": "uint256",
          "name": "_newWinningPrize",
          "type": "uint256"
        }
      ],
      "name": "changeAmounts",
      "outputs": [],
      "stateMutability": "nonpayable",
      "type": "function"
    },
    {
      "inputs": [
        {
          "internalType": "uint256",
          "name": "_betNumber",
          "type": "uint256"
        }
      ],
      "name": "play",
      "outputs": [
        {
          "internalType": "bool",
          "name": "",
          "type": "bool"
        }
      ],
      "stateMutability": "payable",
      "type": "function",
      "payable": true
    }
  ],
  "bytecode": "0x608060405234801561001057600080fd5b506110c8806100206000396000f3fe6080604052600436106100a05760003560e01c80637a1ac61e116100645780637a1ac61e146101885780638b78a4d5146101b15780638da5cb5b146101da578063b3f05b9714610205578063e2eb41ff14610230578063f577a5001461026d576100a7565b80630702d6a6146100ac578063680b0ff6146100d75780636898f82b146101025780636b28a5e41461013257806379b03c7a1461015d576100a7565b366100a757005b600080fd5b3480156100b857600080fd5b506100c16102aa565b6040516100ce919061098b565b60405180910390f35b3480156100e357600080fd5b506100ec6102b4565b6040516100f991906109c1565b60405180910390f35b61011c60048036038101906101179190610a0d565b610308565b60405161012991906109c1565b60405180910390f35b34801561013e57600080fd5b506101476106a2565b60405161015491906109c1565b60405180910390f35b34801561016957600080fd5b506101726106b8565b60405161017f919061098b565b60405180910390f35b34801561019457600080fd5b506101af60048036038101906101aa9190610a98565b6106be565b005b3480156101bd57600080fd5b506101d860048036038101906101d39190610aeb565b6107ba565b005b3480156101e657600080fd5b506101ef6108f2565b6040516101fc9190610b3a565b60405180910390f35b34801561021157600080fd5b5061021a610916565b60405161022791906109c1565b60405180910390f35b34801561023c57600080fd5b5061025760048036038101906102529190610b55565b610929565b60405161026491906109c1565b60405180910390f35b34801561027957600080fd5b50610294600480360381019061028f9190610a0d565b610949565b6040516102a191906109c1565b60405180910390f35b6000600154905090565b6000600360003373ffffffffffffffffffffffffffffffffffffffff1673ffffffffffffffffffffffffffffffffffffffff16815260200190815260200160002060009054906101000a900460ff16905090565b600060015447101561034f576040517f08c379a000000000000000000000000000000000000000000000000000000000815260040161034690610c05565b60405180910390fd5b60008054906101000a900473ffffffffffffffffffffffffffffffffffffffff1673ffffffffffffffffffffffffffffffffffffffff163373ffffffffffffffffffffffffffffffffffffffff16036103dd576040517f08c379a00000000000000000000000000000000000000000000000000000000081526004016103d490610c71565b60405180910390fd5b600015156103e96106a2565b15151461042b576040517f08c379a000000000000000000000000000000000000000000000000000000000815260040161042290610d03565b60405180910390fd5b600015156104376102b4565b151514610479576040517f08c379a000000000000000000000000000000000000000000000000000000000815260040161047090610d6f565b60405180910390fd5b61048282610949565b6104c1576040517f08c379a00000000000000000000000000000000000000000000000000000000081526004016104b890610e01565b60405180910390fd5b66b1a2bc2ec50000341461050a576040517f08c379a000000000000000000000000000000000000000000000000000000000815260040161050190610e93565b60405180910390fd5b60003090508073ffffffffffffffffffffffffffffffffffffffff166108fc349081150290604051600060405180830381858888f19350505050158015610555573d6000803e3d6000fd5b506001600360003373ffffffffffffffffffffffffffffffffffffffff1673ffffffffffffffffffffffffffffffffffffffff16815260200190815260200160002060006101000a81548160ff0219169083151502179055506105b783610964565b15610660576001600060146101000a81548160ff0219169083151502179055503373ffffffffffffffffffffffffffffffffffffffff166108fc6001549081150290604051600060405180830381858888f1935050505015801561061f573d6000803e3d6000fd5b507f81212493cfe3aae362707a663484d79ef61501cb4524e6981ca679538d4d5b2233600154604051610653929190610eb3565b60405180910390a1610698565b7f60a464666633d5140032e2f8c14ba1c821708978439bed86634610fb3b96295b3360405161068f9190610b3a565b60405180910390a15b6001915050919050565b60008060149054906101000a900460ff16905090565b60015481565b600073ffffffffffffffffffffffffffffffffffffffff1660008054906101000a900473ffffffffffffffffffffffffffffffffffffffff1673ffffffffffffffffffffffffffffffffffffffff161461074d576040517f08c379a000000000000000000000000000000000000000000000000000000000815260040161074490610f4e565b60405180910390fd5b826000806101000a81548173ffffffffffffffffffffffffffffffffffffffff021916908373ffffffffffffffffffffffffffffffffffffffff16021790555060008060146101000a81548160ff0219169083151502179055508160018190555080600281905550505050565b60008054906101000a900473ffffffffffffffffffffffffffffffffffffffff1673ffffffffffffffffffffffffffffffffffffffff163373ffffffffffffffffffffffffffffffffffffffff1614610848576040517f08c379a000000000000000000000000000000000000000000000000000000000815260040161083f90610fe0565b60405180910390fd5b6108506106a2565b61088f576040517f08c379a000000000000000000000000000000000000000000000000000000000815260040161088690611072565b60405180910390fd5b816002819055508060018190555060008060146101000a81548160ff0219169083151502179055507f3b015be62373a93ba92aa9971e6cd5e542045c025257c1ec7e8abfb0c3b2cd9c816040516108e6919061098b565b60405180910390a15050565b60008054906101000a900473ffffffffffffffffffffffffffffffffffffffff1681565b600060149054906101000a900460ff1681565b60036020528060005260406000206000915054906101000a900460ff1681565b60006001821015801561095d575060648211155b9050919050565b600060025482149050919050565b6000819050919050565b61098581610972565b82525050565b60006020820190506109a0600083018461097c565b92915050565b60008115159050919050565b6109bb816109a6565b82525050565b60006020820190506109d660008301846109b2565b92915050565b600080fd5b6109ea81610972565b81146109f557600080fd5b50565b600081359050610a07816109e1565b92915050565b600060208284031215610a2357610a226109dc565b5b6000610a31848285016109f8565b91505092915050565b600073ffffffffffffffffffffffffffffffffffffffff82169050919050565b6000610a6582610a3a565b9050919050565b610a7581610a5a565b8114610a8057600080fd5b50565b600081359050610a9281610a6c565b92915050565b600080600060608486031215610ab157610ab06109dc565b5b6000610abf86828701610a83565b9350506020610ad0868287016109f8565b9250506040610ae1868287016109f8565b9150509250925092565b60008060408385031215610b0257610b016109dc565b5b6000610b10858286016109f8565b9250506020610b21858286016109f8565b9150509250929050565b610b3481610a5a565b82525050565b6000602082019050610b4f6000830184610b2b565b92915050565b600060208284031215610b6b57610b6a6109dc565b5b6000610b7984828501610a83565b91505092915050565b600082825260208201905092915050565b7f54686520636f6e747261637420646f65736e277420686f6c6420656e6f75676860008201527f2045544820746f20616c6c6f7720706c617965727320746f2062657400000000602082015250565b6000610bef603c83610b82565b9150610bfa82610b93565b604082019050919050565b60006020820190508181036000830152610c1e81610be2565b9050919050565b7f546865206f776e65722063616e6e6f7420706c6179207468652067616d652021600082015250565b6000610c5b602083610b82565b9150610c6682610c25565b602082019050919050565b60006020820190508181036000830152610c8a81610c4e565b9050919050565b7f54686520647261772069732066696e69736865642c20796f752063616e27742060008201527f706c617900000000000000000000000000000000000000000000000000000000602082015250565b6000610ced602483610b82565b9150610cf882610c91565b604082019050919050565b60006020820190508181036000830152610d1c81610ce0565b9050919050565b7f596f75206861766520616c726561647920706c61796564000000000000000000600082015250565b6000610d59601783610b82565b9150610d6482610d23565b602082019050919050565b60006020820190508181036000830152610d8881610d4c565b9050919050565b7f496e76616c6964206e756d6265722c20706c6561736520656e7465722061206e60008201527f756d626572206265747765656e203120616e6420313030000000000000000000602082015250565b6000610deb603783610b82565b9150610df682610d8f565b604082019050919050565b60006020820190508181036000830152610e1a81610dde565b9050919050565b7f57726f6e6720616d6f756e742c20796f752073686f756c642062657420302e3060008201527f3520455448000000000000000000000000000000000000000000000000000000602082015250565b6000610e7d602583610b82565b9150610e8882610e21565b604082019050919050565b60006020820190508181036000830152610eac81610e70565b9050919050565b6000604082019050610ec86000830185610b2b565b610ed5602083018461097c565b9392505050565b7f54686520636f6e74726163742068617320616c7265616479206265656e20696e60008201527f697469616c697a65640000000000000000000000000000000000000000000000602082015250565b6000610f38602983610b82565b9150610f4382610edc565b604082019050919050565b60006020820190508181036000830152610f6781610f2b565b9050919050565b7f4f6e6c7920746865206f776e6572206f662074686520636f6e7472616374206360008201527f616e2075736520746869732066756e6374696f6e000000000000000000000000602082015250565b6000610fca603483610b82565b9150610fd582610f6e565b604082019050919050565b60006020820190508181036000830152610ff981610fbd565b9050919050565b7f41206e657720647261772063616e6e6f7420626520646f6e6520756e74696c2060008201527f736f6d656f6e652068617320776f6e0000000000000000000000000000000000602082015250565b600061105c602f83610b82565b915061106782611000565b604082019050919050565b6000602082019050818103600083015261108b8161104f565b905091905056fea26469706673582212202e09ff71909b4462dd95bf33a59bf82f4e6eaf0bf02ade0daf99d0386a7c774264736f6c634300080d0033",
  "immutableReferences": {},
  "source": "// SPDX-License-Identifier: MIT\n// Tells the Solidity compiler to compile only from v0.8.13 to v0.9.0\npragma solidity ^0.8.13;\n\ncontract LotteryContract {\n\n  address public owner;\n\n  bool public finalized;\n  uint256 public winningPrize;\n  uint256 internal luckyNumber;\n  mapping (address => bool) public players;\n\n  event HasWon(address winner, uint256 winningAmount);\n  event HasLost(address loser);\n  event NewDraw(uint winningPrize);\n\n\n\n\n  function initialize(address _initialOwner, uint256 _initialWinningPrize, uint256 _initialLuckyNumber) public {\n\trequire(owner == address(0), \"The contract has already been initialized\");\n\towner = _initialOwner;\n    finalized = false;\n    winningPrize = _initialWinningPrize;\n    luckyNumber = _initialLuckyNumber;\n  }\n\n\t\n  function getFinalized() public view returns (bool) {\n    return finalized;\n  }\n\n\n  function getWinningPrize() public view returns (uint256) {\n    return winningPrize;\n  }\n\n\n  function hasAlreadyPlayed() public view returns (bool) {\n    return players[msg.sender];\n  }\n\n\n  function hasWon(uint256 _number) internal view returns (bool) {\n    return _number == luckyNumber;\n  }\n\n\n  function isValid(uint256 _number) public pure returns (bool) {\n    return _number >= 1 && _number <= 100;\n  }\n\n\n  receive() external payable {}\n\n\n  modifier ownerOnly() {\n    require(msg.sender == owner, \"Only the owner of the contract can use this function\");\n    _;\n  }\n\n\n  function changeAmounts(uint256 _newLuckyNumber, uint256 _newWinningPrize) public ownerOnly {\n\trequire(getFinalized(), \"A new draw cannot be done until someone has won\");\n    luckyNumber = _newLuckyNumber;\n    winningPrize = _newWinningPrize;\n    finalized = false;\n\temit NewDraw(_newWinningPrize);\n  }\n\n\n  function play(uint256 _betNumber) public payable returns (bool) {\n\trequire(address(this).balance >= winningPrize, \"The contract doesn't hold enough ETH to allow players to bet\");\n\trequire(msg.sender != owner, \"The owner cannot play the game !\");\n    require(getFinalized() == false, \"The draw is finished, you can't play\");\n    require(hasAlreadyPlayed() == false, \"You have already played\");\n    require(isValid(_betNumber), \"Invalid number, please enter a number between 1 and 100\");\n    require(msg.value == 0.05 ether, \"Wrong amount, you should bet 0.05 ETH\");\n\n\n\taddress payable _contractAddress = payable(address(this));\n    _contractAddress.transfer(msg.value);\n\n    players[msg.sender] = true;\n\n    if (hasWon(_betNumber)) {\n      finalized = true;\n      payable(msg.sender).transfer(winningPrize);\n      emit HasWon(msg.sender, winningPrize);\n    }\n\telse {\n\t  emit HasLost(msg.sender);\n\t}\n    return true;\n  }\n\n}",
  "sourcePath": "/home/estrella/metabox/contracts/LotteryContract.sol",
  "compiler": {
    "name": "solc",
    "version": "0.8.13+commit.abaa5c0e.Emscripten.clang"
  },
  "schemaVersion": "3.4.16",
  "updatedAt": "2024-04-21T20:48:08.305Z",
  "networkType": "ethereum",
  "devdoc": {
    "kind": "dev",
    "methods": {},
    "version": 1
  },
  "userdoc": {
    "kind": "user",
    "methods": {},
    "version": 1
  }
}